{
  "contractName": "AlgorithmStudy",
  "abi": [
    {
      "constant": true,
      "inputs": [
        {
          "name": "arr",
          "type": "uint256[]"
        }
      ],
      "name": "compareToMax",
      "outputs": [
        {
          "name": "",
          "type": "uint256"
        }
      ],
      "payable": false,
      "stateMutability": "pure",
      "type": "function"
    },
    {
      "constant": true,
      "inputs": [
        {
          "name": "arr",
          "type": "uint256[]"
        }
      ],
      "name": "compareToAll",
      "outputs": [
        {
          "name": "",
          "type": "uint256"
        }
      ],
      "payable": false,
      "stateMutability": "pure",
      "type": "function"
    }
  ],
  "bytecode": "0x608060405234801561001057600080fd5b506102d2806100206000396000f30060806040526004361061004c576000357c0100000000000000000000000000000000000000000000000000000000900463ffffffff1680636f6ca39f14610051578063cd3533ee146100cb575b600080fd5b34801561005d57600080fd5b506100b560048036038101908080359060200190820180359060200190808060200260200160405190810160405280939291908181526020018383602002808284378201915050505050509192919290505050610145565b6040518082815260200191505060405180910390f35b3480156100d757600080fd5b5061012f6004803603810190808035906020019082018035906020019080806020026020016040519081016040528093929190818152602001838360200280828437820191505050505050919291929050505061020a565b6040518082815260200191505060405180910390f35b6000806000806000855193506000841115156101645760009450610201565b6001840392505b60008311156101e65760019050600091505b838210156101cd57858381518110151561019357fe5b9060200190602002015186838151811015156101ab57fe5b9060200190602002015111156101c057600090505b818060010192505061017d565b80156101d8576101e6565b82806001900393505061016b565b85838151811015156101f457fe5b9060200190602002015194505b50505050919050565b600080600080845192506000915060008311151561022b576000935061029e565b84600081518110151561023a57fe5b906020019060200201519150600090505b8281101561029a5781858281518110151561026257fe5b90602001906020020151111561028d57848181518110151561028057fe5b9060200190602002015191505b808060010191505061024b565b8193505b5050509190505600a165627a7a72305820707301cbdea5a9487262e000d01aaf06c8d6deef1fceaf353a46da38f0cd8d4f0029",
  "source": "pragma solidity ^0.4.24;\n\ncontract AlgorithmStudy{\n\n\tfunction compareToMax(uint[] arr) public pure returns(uint){\n\t\tuint n = arr.length;\n\t\tuint max = 0;\n\n\t\t// 배열에 원소없는 경우 -1 리턴\n\t\tif (n <= 0) {\n\t\t\treturn 0;\n\t\t}\n\n\t\t// 배열 첫번째 값을 최대값으로 설정\n\t\tmax = arr[0];\n\n\t\t// 모든 값을 최대값과 비교\n\t\tfor (uint i = 0; i < n; i++) {\n\t\t\tif (arr[i] > max) {\n\t\t\t\tmax = arr[i];\n\t\t\t}\n\t\t}\n\n\t\treturn max;\n\t}\n\n\tfunction compareToAll(uint[] arr) public pure returns(uint){\n\t\tuint n = arr.length;\n\n\t\tif (n <= 0) {\n\t\t\treturn 0;\n\t\t}\n\n\t\tuint i;\n\t\tuint j;\n\n\t\tbool isMax;\n\t\tfor (i = n - 1; i > 0; i--) {\n\t\t\tisMax = true;\n\t\t\tfor (j = 0; j < n; j++) {\n\t\t\t\tif (arr[j] > arr[i]) {\n\t\t\t\t\tisMax = false;\n\t\t\t\t}\n\t\t\t}\n\t\t\tif (isMax) {\n\t\t\t\tbreak;\n\t\t\t}\n\t\t}\n\n\t\treturn arr[i];\n\t}\n\n}\n",
  "sourcePath": "/Users/tky476/Workspace/study/ethereum/algorithm/contracts/AlgorithmStudy.sol",
  "compiler": {
    "name": "solc",
    "version": "0.4.24+commit.e67f0147.Emscripten.clang"
  },
  "schemaVersion": "2.0.1",
  "updatedAt": "2018-08-01T03:35:17.344Z"
}