{
  "contractName": "O_n_algorithm",
  "abi": [
    {
      "constant": true,
      "inputs": [
        {
          "name": "i",
          "type": "uint256"
        }
      ],
      "name": "initData",
      "outputs": [
        {
          "name": "",
          "type": "uint256[]"
        }
      ],
      "payable": false,
      "stateMutability": "pure",
      "type": "function"
    }
  ],
  "bytecode": "0x608060405234801561001057600080fd5b5061016c806100206000396000f300608060405260043610610041576000357c0100000000000000000000000000000000000000000000000000000000900463ffffffff1680632ea3eb3614610046575b600080fd5b34801561005257600080fd5b50610071600480360381019080803590602001909291905050506100c8565b6040518080602001828103825283818151815260200191508051906020019060200280838360005b838110156100b4578082015181840152602081019050610099565b505050509050019250505060405180910390f35b6060806000836040519080825280602002602001820160405280156100fc5781602001602082028038833980820191505090505b509150600090505b838110156101365780828281518110151561011b57fe5b90602001906020020181815250508080600101915050610104565b81925050509190505600a165627a7a72305820d47317c4e1642f165e6cb9a8a0281843520d744536c1e8f4f86ce0f781b31f6e0029",
  "source": "pragma solidity ^0.4.24;\n\ncontract O_n_algorithm{\n    \n    \n\tfunction initData(uint i) external pure returns(uint[]){\n\t\tuint[] memory numbers = new uint[](i);\n\n        for (uint j = 0; j < i; j++){\n            numbers[j] = j;\n        }\n        \n        return numbers;\n    }\n    \n    \n}\n",
  "sourcePath": "/Users/tky476/Workspace/study/ethereum/algorithm/contracts/O_n_algorithm.sol",
  "compiler": {
    "name": "solc",
    "version": "0.4.24+commit.e67f0147.Emscripten.clang"
  },
  "schemaVersion": "2.0.1",
  "updatedAt": "2018-08-01T03:28:24.934Z"
}